:020000020000FC
:100000000FE50DBF04E00EBF0FEF0ABB07BB0027D3
:1000100011270BBB18BB989B04C00E9424000E94B0
:100020004600999BF8CF9A9BF6CF0E9446009A9B78
:10003000F2CF9A99FECF0E9446000E9424000E94AF
:1000400024000E944600E7CF13952FE021232A3099
:1000500011F01BBB0895107F105F103A11F01BBB0D
:10006000089511271BBB03952FE020232A3011F0A0
:1000700008BB089511271BBB007F005F003A11F0F9
:1000800008BB089500270BBB08BB089548E65FEF47
:0A0090005A95F1F74A95D9F7089543
:00000001FF
