:020000020000FC
:100000000FE50DBF04E00EBF0FEF0ABB002704BBD6
:10001000BB9A0E946F000027112730E8E89471E036
:100020000E945D000E94EF00989B0AC00E9482001F
:100030000E94A5000E94EF00442743BF9899F4CF87
:10004000E89471E00E945D000E94EF00999B2CC033
:100050009A990AC00E94EF009A9906C00E94EF0088
:100060003395303009F43A959B990AC00E94EF000D
:100070009B9906C00E94EF003A953F3F09F43395E3
:100080003CBF4DE643BFE89477EC0E945D00689466
:1000900070E50E945D0077E50E945D007DE40E94AE
:1000A0005D009999D3CFC0CF0E94C000442743BFC1
:1000B0009899B4CF9999C4CFF7CF872F807F846068
:1000C00080F98BBBDA98DA9A872F8295807F8460DB
:1000D00080F98BBBDA98DA9A0E9401010895E894BE
:1000E0000E94EF0078E20E945D000E94EF007FE036
:1000F0000E945D000E94EF0071E00E945D000E947E
:10010000EF000895E89476E80E945D006894802FDF
:1001100082958F7070E3780F0E945D00802F8F7042
:1001200070E3780F0E945D007AE30E945D00812FEA
:1001300082958F7070E3780F0E945D00812F8F7021
:1001400070E3780F0E945D00089513952FE021233E
:100150002A3009F00895107F105F103A09F00895D1
:10016000112703952FE020232A3009F00895112745
:10017000007F005F003609F00895002711270895D9
:10018000E89475E80E945D00689471E40E945D0047
:1001900073E40E945D0074E50E945D0079E40E94B2
:1001A0005D0076E50E945D0075E40E945D00E894C4
:1001B00075EC0E945D00689473E50E945D0077E530
:1001C0000E945D0079E40E945D0074E50E945D007C
:1001D00073E40E945D0078E40E945D0008959F939F
:1001E00097E29BBD9FE09ABD90E09FBD9AE09EBDC7
:1001F00098B794FFFDCF99279EBD90E198BF9F913E
:1002000008955F934F9348E153E05A95F1F74A956B
:08021000D9F75F914F910895A9
:00000001FF
