:020000020000FC
:100000000FE50DBF04E00EBF0FEF0ABB0E946D00AD
:10001000E89490E80E945500689492E20E9455008E
:100020000E944D0098E40E9455009FE40E945500F4
:100030009CE40E94550091E40E9455000E944D00EE
:1000400092E20E945500E89490EC0E94550068945A
:1000500092E20E9455000E9445009DE40E945500D6
:1000600095E50E9455009EE40E94550094E40E948C
:1000700055009FE40E94550091E20E9455000E94A5
:10008000450092E20E945500FFCF34E0689490E270
:100090000E9455003A95D1F7089535E0689490E2B2
:1000A0000E9455003A95D1F70895892F807F84608A
:1000B00080F98BBBDA980E949B00DA9A0E949B0021
:1000C000892F8295807F846080F98BBBDA980E94AB
:1000D0009B00DA9A0E9490000895E8940E9485009F
:1000E00098E20E9455000E94850096E00E9455000B
:1000F0000E9485009FE00E9455000E94850091E0CB
:100100000E9455000E94850008954F935F9348E632
:100110005FEF5A95F1F74A95D9F75F914F9108959E
:100120004F935F9345E05FEF5A95F1F74A95D9F702
:100130005F914F9108954F935F9348E153E05A9533
:10014000F1F74A95D9F75F914F9108954F935F93D7
:1001500044E157E85A95F1F74A95D9F75F914F91E5
:02016000089500
:00000001FF
