:020000020000FC
:1000000004E00EBF0FE50DBFA0E6B0E00AE012E28B
:100010000FEF0ABBDA9A0E9486000E941000FFCF01
:1000200098E2E8940E944D000E9486009FE0E894C8
:100030000E944D000E94860091E0E8940E944D00CD
:100040000E94860098E468940E944D000E947B0004
:1000500091E468940E944D000E947B0093E46894B0
:100060000E944D000E947B009BE468940E944D001A
:100070000E947B0095E468940E944D000E947B00E2
:1000800094E468940E944D000E947B0091E2689481
:100090000E944D000E947B0008954F93492F407F9E
:1000A000446040F94BBBDA980E949C00DA9A0E94A7
:1000B0009C00492F4295407F446040F94BBBDA9841
:1000C0000E949C00DA9A4F9108954F93D79A42E08C
:1000D0004BBB000000000000DA9A000000000000A6
:1000E000DA98000000000000DA9AD798CF99EECF96
:1000F000D79A4F9108953F934F9337E04FEF4A952A
:10010000F1F73A95D9F74F913F9108953F934F9367
:1001100038E64FEF4A95F1F73A95D9F74F913F916D
:1001200008953F934F933AE04FEF4A95F1F73A9590
:10013000D9F74F913F9108953F934F9331E048E7AE
:0E0140004A95F1F73A95D9F74F913F910895FE
:00000001FF
