:020000020000FC
:0200000024C01A
:0200440036C0C4
:100048002AC004E00EBF0FE50DBF0FEF01BBA59A54
:10005800A39ABB9A0EE300B905E406BF00E001B914
:1000680001E402B900E20BBF00E005BF09E603BFE7
:1000780000E607B907E806B97894369A349BFECFAC
:10008800349A85B182BB913011F09CBFF6CFAE9AFD
:10009800002703BFF2CF0F93FFB6FF92AE9A002757
:1000A80003BFFF90FFBE0F911895FFB6FF9206B7EA
:1000B80007FFFDCF01B1087F003669F0003A59F01B
:1000C800083649F0083A59F0003B49F0003719F072
:1000D800083709F024C0E89405EC06BF04C068940A
:1000E80083B905E806BF06B707FFFDCF46F001B1A3
:1000F800087F003819F0003909F011C009C001B1B2
:10010800087F083C61F405EC06BFFF90FFBE189518
:1001180005EC06BF03B1902FFF90FFBE1895A79A74
:08012800AF9AFF90FFBE18958D
:00000001FF
