:020000020000FC
:0200000016C028
:020004002DC00D
:10002C0026C00FE50DBF04E00EBF0FEF0ABB899A87
:10003C00B89A0E94700071E206E800BD08E90AB99E
:10004C0000E000BD03E309B900E40BBF02E004BF0C
:10005C007894FFCFFFB6FF9243B3F8E0E0E0E40FF3
:10006C0004910CB95D9BFECFFF90FFBE1895FFB6B7
:10007C00FF920CB17A9519F0703149F00CC0E894EC
:10008C0091E00E94580071E290E80E945800E894B8
:10009C0090EC0E9458006894902F0E945800FF909A
:1000AC00FFBE1895892F807F846080F98BBBDA980E
:1000BC000E949E00DA9A0E949E00892F8295807F72
:1000CC00846080F98BBBDA980E949E00DA9A0E94B9
:1000DC0093000895E8940E94880098E20E945800CA
:1000EC000E94880096E00E9458000E9488009FE0C1
:1000FC000E9458000E94880091E00E9458000E94C3
:10010C00880008954F935F9348E65FEF5A95F1F797
:10011C004A95D9F75F914F9108954F935F9345E0BE
:10012C005FEF5A95F1F74A95D9F75F914F91089582
:10013C004F935F9348E153E05A95F1F74A95D9F7FD
:06014C005F914F91089540
:100800003031323334353637383941424344454646
:00000001FF
