:020000020000FC
:0200000025C019
:02004400C1C039
:1000480021E0189504E00EBF0FE50DBF0FEF01BBCF
:100058000ABB0E949E00E0E0B0E80E94B600E1E022
:10006800B0E20E94B600B0E20E94B600B0E20E9480
:10007800B600B0E20E94B600B0E20E94B600B0E559
:100088000E94B600BCE40E94B600B1E40E94B6002B
:10009800BEE40E94B600B4E50E94B600B1E40E9436
:1000A800B600E0E0B0EC0E94B600E1E0B0E20E94E9
:1000B800B600B0E20E94B600B5E40E94B600BDE406
:1000C8000E94B600B2E40E94B600BFE40E94B600E7
:1000D800B4E50E94B600B5E40E94B600BCE40E94F4
:1000E800B600BCE40E94B600B1E40E94B600B4E4D5
:1000F8000E94B600BFE40E94B600B2E50E94B600B6
:10010800B1E40E94B60002E600B900E001B900E2DD
:100118000BBF00E004BF7894F2E0E89490E405EAAD
:1001280006BFE89492E405EA06BF9927689405EAB1
:1001380006BFF3CFE0E00E943A01B8E20E94B600A1
:100148000E943A01B6E00E94B6000E943A01BFE060
:100158000E94B6000E943A01B1E00E94B6000E94D7
:100168003A010895DB2FD07FD460DE0FDBBBDA982D
:100178000E94D900DA9A0E94D900DB2FD295D07F4D
:10018800D460DE0FDBBBDA980E94D900DA9A0E94AD
:10019800CE0008954F935F9345E05FEF5A95F1F7CE
:1001A8004A95D9F75F914F9108954F935F9348E12E
:1001B80053E05A95F1F74A95D9F75F914F91089511
:1001C800FFB6FF9206B707FFFDCF01B1087F0830E1
:1001D80059F426F493B905E806BF07C0092F03951B
:1001E80003B905E806BF01C03CC006B707FFFDCF4D
:1001F80001B1087F2EF4003279F1083191F504C07D
:10020800083451F1003469F5213011F423B906C0DE
:1002180046F4BC1410F0C3B801C0B3B805E806BF73
:1002280002C005EC06BF06B707FFFDCF2EF401B1EB
:10023800087F0832B1F410C001B1087F003589F495
:1002480004EC06BFF23011F0F13019F0B3B0FA95B2
:1002580003C0C3B0F2E000C005E906BFFF90FFBECF
:100268001895A79AAF9AFF90FFBE189548E65FEFDA
:0A0278005A95F1F74A95D9F7089559
:00000001FF
