:020000020000FC
:100000000FE50DBF04E00EBF0FEF04BB07BB29B324
:1000100023130E94150020FD0E941B0021FD0E9459
:10002000240022FD0E943500F2CF30FF0FEF31FF98
:100030000027E894089531E00A9505BB6AE00E9424
:1000400042006A95E1F7089532E03EF4000F05BBE7
:1000500007FFE8940E94490008950894079505BB9E
:1000600000FD68940E944900089534E0193029F099
:10007000139518BB0E944F000895112718BB0E94CA
:100080004F00089548E65FEF5A95F1F74A95D9F782
:10009000089564E10E9442006A95E1F7089562E3E1
:0A00A0000E9442006A95E1F70895FE
:00000001FF
