:020000020000FC
:100000000FE50DBF04E00EBF0FEF0ABB002711275D
:100010000E94A300989B20C08EE38BBD8FE78ABD12
:1000200080E08FBD89E08EBD88278CBF8FE083BFC5
:1000300088B781FF04C00E94680082E088BF84FF07
:10004000F7CF88278EBD83BF80E188BF0E948300E1
:10005000002711279899DECF999BDCCF88278FBD89
:1000600084E48EBD88B785FFFDCF88278DBD8CBD0C
:1000700080E288BF88278FBD84E08EBD88B785FF6A
:10008000FDCF88278FBD8EBD80E288BF66B577B56E
:100090000E94EA00E89496EC0E94B6006894D0E0D2
:1000A000C0E6899190E3980F0E94B600899190E391
:1000B000980F0E94B600899190E3980F0E94B600B5
:1000C000888190E3980F0E94B6009899C5CFA2CF7F
:1000D00013952FE021232A3009F00895107F105F37
:1000E000103A09F00895112703952FE020232A30B4
:1000F00009F008951127007F005F003A09F0089584
:10010000002711270895E89496E80E94B6006894A5
:10011000802F82958F7090E3980F0E94B600802FF9
:100120008F7090E3980F0E94B600812F82958F7098
:1001300090E3980F0E94B600812F8F7090E3980F84
:100140000E94B6000895E8940E94CE0098E20E94B2
:10015000B6000E94CE009FE00E94B6000E94CE0032
:1001600091E00E94B6000E94CE000895892F807F02
:10017000846080F98BBBDA980E94DC00DA9A0E94D6
:10018000DC00892F8295807F846080F98BBBDA98B0
:100190000E94DC00DA9A0E94DC0008958F938DE4BF
:1001A00083BD8FE085BD88B787FFFDCF882785BDDC
:1001B00080E888BF8F9108958F9387E283BD8AE09E
:1001C00085BD88B787FFFDCF882785BD80E888BFBC
:1001D0008F910895002700936000009361000093C1
:1001E000620000936300603019F4703009F40895E0
:1001F00010E0C3E6D0E08881839588838A3021F4BB
:100200001883CA95CF35B9F76A956F3F61F77A952C
:02021000EACF33
:00000001FF
