:020000020000FC
:0200000026C018
:0200040057C0E3
:020008008DC0A9
:02000C00D1C061
:10004C00A0C004E00EBF0FE50DBF0FEF07BB02E829
:10005C0009BF00EC0BBF0FE005BF7894B0E0A0E641
:10006C0084E090E100E40CBF0DE003BF0DE403BDA0
:10007C0000270093600000936100009362000093DE
:10008C006300809903C0819B04C0FBCF0FE005BDCA
:10009C00F8CF00270093600000936100009362008A
:1000AC000093630005BDEDCF0FB70F93819B0BC081
:1000BC000E94DF00829B07C078948299FECF0E9439
:1000CC00DF000E946C000F910FBF18951127009153
:1000DC0063000395009363000A30E9F41093630006
:1000EC00009162000395009362000A30A1F4109312
:1000FC006200009161000395009361000A3059F48D
:10010C0010936100009160000395009360000A3029
:10011C0011F41093600008950FB70F93819BD3CF08
:10012C000E94DF00839B2AC078948399FECF0E94A3
:10013C00DF0019E0009163000A95009363000F3F04
:10014C00E9F410936300009162000A950093620039
:10015C000F3FA1F410936200009161000A95009387
:10016C0061000F3F59F410936100009160000A95F3
:10017C00009360000F3F11F4109360000F910FBFBC
:10018C0018954FB74F930D90492F407F040E08BA26
:10019C00991F8A9521F4A0E6B0E084E090E14F919C
:1001AC004FBF18950FB70F930E946C000F910FBFA4
:1001BC00189548E65FEF5A95F1F74A95D9F70895E7
:00000001FF
